:100000000C942C000C9449000C9449000C9496021A
:100010000C94EC010C9482010C9449000C9449005E
:100020000C9449000C9449000C9465020C94FD0159
:100030000C9449000C9449000C9449000C9449001C
:100040000C9449000C9449000C9449000C9449000C
:100050000C9449000C94490011241FBECFEFD4E04A
:10006000DEBFCDBF11E0A0E0B1E0E6EFF0E102C0FD
:1000700005900D92A639B107D9F711E0A6E9B1E0D4
:1000800001C01D92AA3AB107E1F70E94A4020C94A4
:1000900079080C940000CF93DF930F92CDB7DEB7B1
:1000A000E0919901F0919A0120819091A30190959E
:1000B00092239083E091A601F091A7012081909175
:1000C000A30190959223908387FD3CC091B3987CC7
:1000D000936391BB6CE00E942C08892F880F880FD6
:1000E000890F8983898186958983E981F0E0EE0F04
:1000F000FF1FE65AFE4FA081B181B0939A01A093F1
:100100009901E981F0E0EE0FFF1FE25EFE4F808172
:1001100091819093A7018093A601E981F0E0E050DE
:10012000FF4F80818093A3018C919091A301892B33
:100130008C93E091A601F091A70180819091A30199
:10014000892B80830F90DF91CF910895CF93DF9318
:1001500000D0CDB7DEB78A83E0919901F0919A0182
:1001600090818091A301809589238083E091A601ED
:10017000F091A70190818091A301809589238083CC
:100180008A8187FD40C08A8180FD04C081B3887C5C
:10019000876103C081B3887C876281BB8A816CE3FD
:1001A0000E942C089983898186958983E981F0E0F2
:1001B000EE0FFF1FE65AFE4FA081B181B0939A0166
:1001C000A0939901E981F0E0EE0FFF1FE25EFE4F80
:1001D000808191819093A7018093A601E981F0E04D
:1001E000E050FF4F80818093A3018C919091A301F7
:1001F000892B8C93E091A601F091A70180819091C9
:10020000A301892B80830F900F90DF91CF910895E8
:10021000CF93DF9300D0CDB7DEB78A83E091990109
:10022000F0919A0190818091A30180958923808328
:10023000E091A601F091A70190818091A3018095A2
:10024000892380838A8187FD40C08A8180FD04C024
:1002500081B3887C856303C081B3887C866381BB5E
:100260008A816CE30E942C08998389818695898311
:10027000E981F0E0EE0FFF1FE65AFE4FA081B18149
:10028000B0939A01A0939901E981F0E0EE0FFF1F6E
:10029000E25EFE4F808191819093A7018093A60139
:1002A000E981F0E0E050FF4F80818093A3018C91C1
:1002B0009091A301892B8C93E091A601F091A70165
:1002C00080819091A301892B80830F900F90DF9103
:1002D000CF910895E0919901F0919A0190818091D8
:1002E000A301809589238083E091A601F091A70165
:1002F00090818091A30180958923808381B3876356
:1003000081BB08951F920F920FB60F9211248F9305
:100310009F938091A0018F5F8093A0018091A001A5
:100320008C33C0F01092A0018091A1018F5F809367
:10033000A1018091A1018C3368F01092A1018091FC
:100340009F018F5F80939F0180919F01883110F002
:1003500010929F01139B0CC080919701823039F05D
:1003600080919701813019F08091A8018111169A2E
:1003700080919D01882301F190919C0180919F01C2
:100380009817D1F49091A2018091A1019817A1F43E
:1003900080919B01882391F481E08093A801809350
:1003A0009B010C9A80919701882341F489E0809306
:1003B00097011092980102C010929B0180919701C1
:1003C000882319F481E0809398019F918F910F9079
:1003D0000FBE0F901F9018951F920F920FB60F929D
:1003E00011248F938091A801882309F416988F9186
:1003F0000F900FBE0F901F9018951F920F920FB67F
:100400000F9211242F933F934F935F936F937F939A
:100410008F939F93AF93BF93EF93FF938091A80126
:10042000882319F0149A1399169A809197018823BA
:10043000B1F180919701873091F18091960163E04D
:100440000E942008992341F48091A401992787FDF7
:1004500090950E944B0016C0913041F48091A90103
:10046000992787FD90950E94A6000CC08091A50158
:10047000992787FD90950E94080180919E018F5FCA
:1004800080939E01809196018D3718F0109296010D
:100490000BC0809196018F5F8093960105C00E94EA
:1004A0006A0181E080939801FF91EF91BF91AF9134
:1004B0009F918F917F916F915F914F913F912F917C
:1004C0000F900FBE0F901F9018951F920F920FB6AE
:1004D0000F9211242F933F934F935F936F937F93CA
:1004E0008F939F93AF93BF93EF93FF938091A80156
:1004F000882311F0149809C080919701882329F46A
:100500000E946A0181E080939801FF91EF91BF9171
:10051000AF919F918F917F916F915F914F913F919B
:100520002F910F900FBE0F901F9018951F920F9252
:100530000FB60F9211241092A801149A0C980F90E4
:100540000FBE0F901F90189580E090E00E94600809
:10055000CCE36C2F0E9420089093A00181E090E0F2
:100560000E9460086C2F0E9420089093A10182E0F5
:1005700090E00E946008D8E16D2F0E9420089093BF
:100580009F0183E090E00E9460086C2F0E94200889
:100590009093A20184E090E00E9460086D2F0E9479
:1005A000200890939C0185E090E00E946008809371
:1005B0009D0111B814B817B81AB81DB813BA12B8FB
:1005C00015B818B81BB81EB814BA87E380BB81BB36
:1005D000239821982B9A299A149A0C980E9A139A78
:1005E0000B98EAE5F1E0AEE1B1E000E011E04EE1A8
:1005F000308121813296832F922F9801E8016991F1
:100600008E016095EC015881562358836C911196A8
:100610005C9111971296862F952FE90138813095BC
:10062000EC01288123232883415011F780915A013E
:1006300090915B0190939A018093990180911E01A2
:1006400090911F019093A7018093A60180910001D2
:100650008093A30188E08093B60026E02093B30046
:1006600083E08093700095E09093B00091E094BD9A
:1006700030E837BD80936E0080916C008A60809373
:100680006C00ED9A809164008F608093640023BFBA
:100690007894109297019093980120E010E0442400
:1006A00055243201CC24DD247601CFEFD3E0ECE0F9
:1006B0008E2E912C03E001C020E0809197018823C9
:1006C00029F080919701893009F056C019993AC0F4
:1006D00084E08093970110929801C093A501C09384
:1006E000A901C093A40141E24A95F1F7000035E069
:1006F000ECE3F0E024C08091A00180FF02C080E024
:1007000001C08FEF8093A50180919F018C3018F07C
:100710004AE350E002C04CE150E08091A001632F19
:100720000E942008BA01690F711DCB01BF010E9410
:1007300039088093A90180919F018093A401199B9E
:10074000DACF91C31B9912C081E080939701C093C7
:10075000A401C093A901C093A50110929E0110921B
:10076000980181E28A95F1F7000062C080919701BB
:10077000893009F068C020C480919701813029F444
:1007800082B182E08093970117C4809197018230F3
:1007900009F052C08091A1018093A90180919F012D
:1007A0008093A401139903C0C093A50104C0809154
:1007B000A0018093A50141E24A95F1F700001B9941
:1007C00011C059ECC516D104E104F10428F40894D1
:1007D000C11CD11CE11CF11C109298014424552429
:1007E0003201EAC3139906C01092970181E0809309
:1007F00098011EC068ECC616D104E104F10488F427
:1008000079EC471651046104710458F40894411CB2
:10081000511C611C711C88EC481651046104710460
:1008200028F00093970110929E0102C01092980147
:10083000CC24DD247601C0C380919701833039F444
:1008400082B11092970181E080939801B5C38091A5
:100850009701843009F0D2C08091A00180FF02C0CE
:1008600080E001C08FEF8093A50180919F018C30C3
:1008700018F04AE350E002C04CE150E08091A00142
:1008800065E00E942008BA01690F711DCB016CE37D
:1008900070E00E9439088093A90180919F018093A4
:1008A000A4011B996FC080919F0190E0019668E1BF
:1008B00070E00E94390880939F0180919F0180938E
:1008C000A40180919F018C3018F02AE330E002C02F
:1008D0002CE130E08091A00165E00E942008A90190
:1008E000490F511DCA016CE370E00E9439088093E2
:1008F000A90151E25A95F1F7000040E0E5E07CE300
:10090000A72EB12C29C08091A00180FF02C080E0F9
:1009100001C08FEF8093A50180919F018C3018F06A
:100920002AE330E002C02CE130E08091A0016E2F7C
:100930000E942008B901690F711DCB01B5010E9409
:1009400039088093A90180919F018093A40171E2ED
:100950007A95F1F700004F5F242F30E0112319F44E
:100960008AE090E002C085E090E02817390714F48F
:100970001B9BC9CF1B9B10C081E28A95F1F7000039
:1009800021E008C01B9B0AC0112341F041E24A95B7
:10099000F1F7000010E002C021E011E019990CC34A
:1009A0008091A00180FF02C085E001C08FEF80939D
:1009B000A5018091A1018093A901C093A40185E0C4
:1009C000809397011092980151E25A95F1F7000037
:1009D0000DC08091A00180FF02C085E001C08FEFB3
:1009E0008093A5018091A1018093A901199BF1CF6A
:1009F00061E26A95F1F7000021E0DEC28091970183
:100A0000853009F0C7C08091A00180FF02C085E059
:100A100001C08FEF8093A501C093A4018091A10133
:100A20008093A9011B993CC08091A10190E001969F
:100A30006CE370E00E9439088093A1018091A101CC
:100A40008093A90171E27A95F1F7000040E012C0AD
:100A50008091A00180FF02C085E001C08FEF8093EC
:100A6000A5018091A1018093A90181E28A95F1F706
:100A700000004F5F242F30E0112319F48AE090E04A
:100A800002C085E090E02817390714F41B9BE0CFE3
:100A90001B9B10C041E24A95F1F7000021E008C01D
:100AA0001B9B0AC0112341F051E25A95F1F7000057
:100AB00010E002C021E011E019997EC2C093A501A7
:100AC000C093A901C093A40180919D01882379F569
:100AD00088E0809397011092980161E26A95F1F79E
:100AE000000022C08091A00180FF02C084E101C00B
:100AF0008FEF8093A50180919D01882339F080912B
:100B0000A0016D2F0E9420089B5F0CC08091A00166
:100B10006D2F0E942008892F90E00B96B4010E944F
:100B20003908982F9093A401199BDCCF9CC186E0D3
:100B3000809397011092980181E28A95F1F7000065
:100B400022C08091A00180FF02C08AE001C08FEF27
:100B50008093A50180919D01882339F08091A001A7
:100B60006D2F0E9420089B5F0CC08091A0016D2F0B
:100B70000E942008892F90E00B96B4010E9439084A
:100B8000982F9093A401199BDCCF41E24A95F1F78D
:100B9000000012C280919701863009F0D0C0809188
:100BA000A00180FF02C08AE001C08FEF8093A50101
:100BB00080919C018C3018F04AE350E002C04CE177
:100BC00050E08091A00165E00E942008BA01690F01
:100BD000711DCB016CE370E00E9439088093A9017C
:100BE00080919C018093A4011B996FC080919C010E
:100BF00090E0019668E170E00E94390880939C01C2
:100C000080919C018093A40180919C018C3018F00C
:100C10002AE330E002C02CE130E08091A00165E0E1
:100C20000E942008A901490F511DCA016CE370E020
:100C30000E9439088093A90151E25A95F1F700000A
:100C400040E0E5E06CE3A62EB12C29C08091A00124
:100C500080FF02C08AE001C08FEF8093A5018091E0
:100C60009C018C3018F02AE330E002C02CE130E027
:100C70008091A0016E2F0E942008B901690F711D9B
:100C8000CB01B5010E9439088093A90180919C0194
:100C90008093A40171E27A95F1F700004F5F242F51
:100CA00030E0112319F48AE090E002C085E090E082
:100CB0002817390714F41B9BC9CF1B9B10C081E276
:100CC0008A95F1F7000021E008C01B9B0AC01123A0
:100CD00041F041E24A95F1F7000010E002C021E046
:100CE00011E0199969C18091A00180FF02C08FE0D5
:100CF00001C08FEF8093A5018091A2018093A9018B
:100D0000C093A40187E0809397011092980151E26B
:100D10005A95F1F700000DC08091A00180FF02C03C
:100D20008FE001C08FEF8093A5018091A101809396
:100D3000A901199BF1CF61E26A95F1F729CF809162
:100D40009701873009F093C08091A00180FF02C015
:100D50008FE001C08FEF8093A501C093A401809123
:100D6000A2018093A9011B993CC08091A20190E04F
:100D700001966CE370E00E9439088093A201809193
:100D8000A2018093A90171E27A95F1F7000040E099
:100D900012C08091A00180FF02C08FE001C08FEFE0
:100DA0008093A5018091A2018093A90181E28A9597
:100DB000F1F700004F5F242F30E0112319F48AE08F
:100DC00090E002C085E090E02817390714F41B9BDF
:100DD000E0CF1B9B10C041E24A95F1F7000021E0F3
:100DE00008C01B9B0AC0112341F051E25A95F1F74C
:100DF000000010E002C021E011E01999DDC0C093AD
:100E0000A501C093A901C093A40188E08093970134
:100E10001092980161E26A95F1F7000022C080917A
:100E2000A00180FF02C084E101C08FEF8093A50183
:100E300080919D01882339F08091A0016D2F0E943F
:100E400020089B5F0CC08091A0016D2F0E9420089C
:100E5000892F90E00B96B4010E943908982F909347
:100E6000A401199BDCCF71E27A95F1F791CE8091C4
:100E70009701883009F085C08091A00180FF02C0F1
:100E800084E101C08FEF8093A501C093A9018091F7
:100E90009D01882339F08091A0016D2F0E942008C8
:100EA0009B5F0CC08091A0016D2F0E942008892FAC
:100EB00090E00B96B4010E943908982F9093A401FA
:100EC0001B994EC090919D0181E0911180E080932B
:100ED0009D0180919D01882339F08091A0016D2FA3
:100EE0000E9420089B5F0CC08091A0016D2F0E9482
:100EF0002008892F90E00B96B4010E943908982FA2
:100F00009093A40181E28A95F1F7000022C08091BC
:100F1000A00180FF02C084E101C08FEF8093A50192
:100F200080919D01882339F08091A0016D2F0E944E
:100F300020089B5F0CC08091A0016D2F0E942008AB
:100F4000892F90E00B96B4010E943908982F909356
:100F5000A4011B9BDCCF41E24A95F1F7000021E0A0
:100F600019992AC0C093A501C093A901C093A401F7
:100F70001092970181E08093980151E25A95F1F720
:100F800007CE809197018930B9F48091A00180FF4C
:100F900007C0C093A501C093A901C093A4010CC0D0
:100FA0008091A0018093A5018091A1018093A90166
:100FB00080919F018093A40180919801882309F476
:100FC0007CCBC093A501C093A901C093A40110924A
:100FD0009701222321F16091A00180E090E00E941E
:100FE00068086091A10181E090E00E94680860912A
:100FF0009F0182E090E00E9468086091A20183E076
:1010000090E00E94680860919C0184E090E00E945A
:10101000680860919D0185E090E00E9468088091D9
:10102000A801882309F048CB10926E0083B7816035
:1010300083BF889583B78E7F83BFD0936E003CCBF0
:10104000991B79E004C0991F961708F0961B881F1A
:101050007A95C9F78095089587FB082E062687FDA7
:10106000819567FD6195ECDF0EF4919507FC819504
:10107000089597FB092E07260AD077FD04D00CD0DF
:1010800006D000201AF4709561957F4F0895F6F709
:10109000909581959F4F0895AA1BBB1B51E107C0F6
:1010A000AA1FBB1FA617B70710F0A61BB70B881FF8
:1010B000991F5A95A9F780959095BC01CD01089587
:1010C000F999FECF92BD81BDF89A992780B5089510
:1010D000262FF999FECF92BD81BDF89A019700B4F1
:1010E000021631F020BD0FB6F894FA9AF99A0FBEA5
:0610F0000895F894FFCF03
:1010F60008408002042008040201020180402010FA
:1011060008804020100180402010080402013000B1
:101116003000300021002100210027002700270091
:101126002700330033002A002A002A003300330048
:10113600240024002400240024002D002D002D006E
:101146002D002D002D002D002D0031003100310025
:10115600220022002200280028002800280034004F
:1011660034002B002B002B00340034002500250012
:101176002500250025002E002E002E002E002E0014
:061186002E002E002E00D9
:00000001FF
