:100000000C942C000C9449000C9449000C9496021A
:100010000C94EC010C9482010C9449000C9449005E
:100020000C9449000C9449000C9465020C94FD0159
:100030000C9449000C9449000C9449000C9449001C
:100040000C9449000C9449000C9449000C9449000C
:100050000C9449000C94490011241FBECFEFD4E04A
:10006000DEBFCDBF11E0A0E0B1E0E4E1F6E102C007
:1000700005900D92AE39B107D9F711E0AEE9B1E0C4
:1000800001C01D92A23BB107E1F70E94A4020C94AB
:10009000080B0C940000CF93DF930F92CDB7DEB71F
:1000A000E091A101F091A20120819091AB01909586
:1000B00092239083E091AE01F091AF012081909165
:1000C000AB0190959223908387FD3CC091B3987CBF
:1000D000936391BB6CE00E946509892F880F880F9C
:1000E000890F8983898186958983E981F0E0EE0F04
:1000F000FF1FE65AFE4FA081B181B093A201A093E9
:10010000A101E981F0E0EE0FFF1FE25EFE4F80816A
:1001100091819093AF018093AE01E981F0E0E050CE
:10012000FF4F80818093AB018C919091AB01892B23
:100130008C93E091AE01F091AF0180819091AB0181
:10014000892B80830F90DF91CF910895CF93DF9318
:1001500000D0CDB7DEB78A83E091A101F091A20172
:1001600090818091AB01809589238083E091AE01DD
:10017000F091AF0190818091AB01809589238083BC
:100180008A8187FD40C08A8180FD04C081B3887C5C
:10019000876103C081B3887C876281BB8A816CE3FD
:1001A0000E9465099983898186958983E981F0E0B8
:1001B000EE0FFF1FE65AFE4FA081B181B093A2015E
:1001C000A093A101E981F0E0EE0FFF1FE25EFE4F78
:1001D000808191819093AF018093AE01E981F0E03D
:1001E000E050FF4F80818093AB018C919091AB01E7
:1001F000892B8C93E091AE01F091AF0180819091B9
:10020000AB01892B80830F900F90DF91CF910895E0
:10021000CF93DF9300D0CDB7DEB78A83E091A10101
:10022000F091A20190818091AB0180958923808318
:10023000E091AE01F091AF0190818091AB0180958A
:10024000892380838A8187FD40C08A8180FD04C024
:1002500081B3887C856303C081B3887C866381BB5E
:100260008A816CE30E9465099983898186958983D7
:10027000E981F0E0EE0FFF1FE65AFE4FA081B18149
:10028000B093A201A093A101E981F0E0EE0FFF1F5E
:10029000E25EFE4F808191819093AF018093AE0129
:1002A000E981F0E0E050FF4F80818093AB018C91B9
:1002B0009091AB01892B8C93E091AE01F091AF014D
:1002C00080819091AB01892B80830F900F90DF91FB
:1002D000CF910895E091A101F091A20190818091C8
:1002E000AB01809589238083E091AE01F091AF014D
:1002F00090818091AB0180958923808381B387634E
:1003000081BB08951F920F920FB60F9211248F9305
:100310009F938091A8018F5F8093A8018091A8018D
:100320008C33C0F01092A8018091A9018F5F809357
:10033000A9018091A9018C3368F01092A9018091E4
:10034000A7018F5F8093A7018091A701883110F0EA
:100350001092A701139B0CC080919F01823039F04D
:1003600080919F01813019F08091B0018111169A1E
:100370008091A501882301F19091A4018091A701AA
:100380009817D1F49091AA018091A9019817A1F42E
:100390008091A301882391F481E08093B001809340
:1003A000A3010C9A80919F01882341F48AE08093F5
:1003B0009F011092A00102C01092A30180919F01A1
:1003C000882319F481E08093A0019F918F910F9071
:1003D0000FBE0F901F9018951F920F920FB60F929D
:1003E00011248F938091B001882309F416988F917E
:1003F0000F900FBE0F901F9018951F920F920FB67F
:100400000F9211242F933F934F935F936F937F939A
:100410008F939F93AF93BF93EF93FF938091B0011E
:10042000882319F0149A1399169A80919F018823B2
:10043000B1F180919F018A3091F180919E0163E03A
:100440000E945909992341F48091AC01992787FDB5
:1004500090950E944B0016C0913041F48091B101FB
:10046000992787FD90950E94A6000CC08091AD0150
:10047000992787FD90950E9408018091A6018F5FC2
:100480008093A60180919E018D3718F010929E01F5
:100490000BC080919E018F5F80939E0105C00E94DA
:1004A0006A0181E08093A001FF91EF91BF91AF912C
:1004B0009F918F917F916F915F914F913F912F917C
:1004C0000F900FBE0F901F9018951F920F920FB6AE
:1004D0000F9211242F933F934F935F936F937F93CA
:1004E0008F939F93AF93BF93EF93FF938091B0014E
:1004F000882311F0149809C080919F01882329F462
:100500000E946A0181E08093A001FF91EF91BF9169
:10051000AF919F918F917F916F915F914F913F919B
:100520002F910F900FBE0F901F9018951F920F9252
:100530000FB60F9211241092B001149A0C980F90DC
:100540000FBE0F901F90189580E090E00E945C0A0B
:1005500090E08F779070CCE3D0E0BE010E947209EA
:100560008093A80181E090E00E945C0A90E08F7780
:100570009070BE010E9472098093A90182E090E010
:100580000E945C0A90E08F77907008E110E0B8015B
:100590000E9472098093A70183E090E00E945C0AA8
:1005A00090E08F779070BE010E9472098093AA013B
:1005B00084E090E00E945C0A90E08F779070B80130
:1005C0000E9472098093A40185E090E00E945C0A79
:1005D0008F778093A50111B814B817B81AB81DB851
:1005E00013BA12B815B818B81BB81EB814BA87E3F6
:1005F00080BB81BB239821982B9A299A149A0C9836
:100600000E9A139A0B98EAE5F1E0AEE1B1E000E052
:1006100011E04EE1308121813296832F922F980193
:10062000E80169918E016095EC0158815623588349
:100630006C9111965C9111971296862F952FE90176
:1006400038813095EC01288123232883415011F70C
:1006500080915A0190915B019093A2018093A10136
:1006600080911E0190911F019093AF018093AE0184
:10067000809100018093AB0188E08093B60026E072
:100680002093B30083E08093700095E09093B000D6
:1006900091E094BD30E837BD80936E0080916C008E
:1006A0008A6080936C00ED9A809164008F608093E3
:1006B000640023BF789410929F019093A001D0E032
:1006C00010E0882499245401CC24DD247601CFEF56
:1006D000BCE04B2E512C03E083E0382E01C0D0E06B
:1006E00080919F01882329F080919F018A3009F031
:1006F00056C019993AC084E080939F011092A001DE
:10070000C093AD01C093B101C093AC0141E24A95E1
:10071000F1F7000045E0ECE3F0E024C08091A8018F
:1007200080FF02C080E001C08FEF8093AD01809117
:10073000A7018C3018F02AE330E002C02CE130E051
:100740008091A801642F0E945909B901690F711D98
:10075000CB01BF010E9472098093B1018091A70172
:100760008093AC01199BDACF04C31B9912C081E0BE
:1007700080939F01C093AC01C093B101C093AD01C0
:100780001092A6011092A00181E28A95F1F7000073
:10079000C9C080919F018A3009F0EBC046C58091A5
:1007A0009F01813009F082C0139904C082E08093D8
:1007B0009F013BC51B990EC049ECC416D104E1044E
:1007C000F10428F40894C11CD11CE11CF11C109206
:1007D000A00103C0CC24DD2476018091A6012091E4
:1007E000AD018091A801332727FD309590E02817AF
:1007F000390724F48091AD018F5F02C08091A80178
:100800008093AD012091B1018091A901332727FD8B
:10081000309590E02817390724F48091B1018F5F5B
:1008200002C08091A9018093B1012091AC01809117
:10083000A701332727FD30956CE00E945909892FC5
:1008400090E02817390724F48091AC018F5F02C033
:100850008091A7018093AC011092A6012091AD0177
:100860008091A801332727FD309590E0281739079C
:1008700009F0D8C42091B1018091A901332727FD47
:10088000309590E02817390709F0CCC42091AC01CD
:100890008091A701332727FD309590E0281739076D
:1008A00009F0C0C482E080939F01BCC480919F0185
:1008B000823009F055C08091A9018093B1018091E7
:1008C000A7018093AC01139903C0C093AD0104C08C
:1008D0008091A8018093AD0151E25A95F1F7000093
:1008E0001B990EC069ECC616D104E104F10428F48A
:1008F0000894C11CD11CE11CF11C1092A00192C4EF
:10090000139906C010929F0181E08093A0010AC054
:1009100078ECC716D104E104F10440F030929F0155
:100920001092A601CC24DD2476017FC481E98816CB
:1009300081E0980680E0A80680E0B80678F7089481
:10094000811C911CA11CB11C40E9841641E0940655
:1009500040E0A40640E0B40608F71092A001E2CF00
:1009600080919F01833009F065C0139906C01092F1
:100970009F0181E08093A00158C41B9911C059ECDC
:10098000C516D104E104F10428F40894C11CD11C5B
:10099000E11CF11C1092A00181E080939F0103C033
:1009A000CC24DD2476018091A6018091AD0187FDE4
:1009B00005C08091AD018F5F8093AD018091B10141
:1009C00087FD05C08091B1018F5F8093B101809157
:1009D000AC0187FD05C08091AC018F5F8093AC01B5
:1009E0001092A6018091AD018C3314F0C093AD013B
:1009F0008091B1018C3314F0C093B1018091AC01AE
:100A00008C3021F08091AC01883114F0C093AC019E
:100A10008091AD0187FF06C48091B10187FF02C4B8
:100A20008091AC0187FFFEC310929F0181E080930B
:100A3000A001F8C380919F01843009F0CEC080915D
:100A4000A80180FF02C080E001C08FEF8093AD015C
:100A50008091A7018C3018F02AE330E002C02CE12D
:100A600030E08091A80165E00E945909B901690F41
:100A7000711DCB016CE370E00E9472098093B1019B
:100A80008091A7018093AC011B996FC08091A70151
:100A900090E0019668E170E00E9472098093A701DE
:100AA0008091A7018093AC018091A7018C3018F050
:100AB0002AE330E002C02CE130E08091A80165E03B
:100AC0000E945909A901490F511DCA016CE370E048
:100AD0000E9472098093B10151E25A95F1F700002A
:100AE00040E0E5E0ACE36A2E712C29C08091A801BA
:100AF00080FF02C080E001C08FEF8093AD01809144
:100B0000A7018C3018F02AE330E002C02CE130E07D
:100B10008091A8016E2F0E945909B901690F711DBA
:100B2000CB01B3010E9472098093B1018091A701AA
:100B30008093AC0171E27A95F1F700004F5F242FAA
:100B400030E0112319F48AE090E002C085E090E0E3
:100B50002817390714F41B9BC9CF1B9B10C081E2D7
:100B60008A95F1F70000D1E008C01B9B0AC0112351
:100B700041F041E24A95F1F7000010E002C0D1E0F7
:100B800011E0199952C38091A80180FF02C085E04D
:100B900001C08FEF8093AD01C093AC0185E08093DD
:100BA0009F011092A00151E25A95F1F700000DC08B
:100BB0008091A80180FF02C085E001C08FEF809383
:100BC000AD018091A9018093B101199BF1CF61E240
:100BD0006A95F1F70000D1E028C380919F0185302C
:100BE00009F0CBC08091A80180FF02C085E001C060
:100BF0008FEF8093AD01C093AC018091A9018093E8
:100C0000B1011B993CC08091A90190E001966CE371
:100C100070E00E9472098093A9018091A9018093DC
:100C2000B10171E27A95F1F7000040E012C08091C5
:100C3000A80180FF02C085E001C08FEF8093AD0165
:100C40008091A9018093B10181E28A95F1F70000BA
:100C50004F5F242F30E0112319F48AE090E002C0A6
:100C600085E090E02817390714F41B9BE0CF1B9B0D
:100C700010C0D1E2DA95F1F70000D1E008C01B9B6B
:100C80000AC0112341F041E24A95F1F7000010E05B
:100C900002C0D1E011E01999C8C2C093AD01C09360
:100CA000B101C093AC018091A501882379F588E05A
:100CB00080939F011092A00151E25A95F1F7000034
:100CC00022C08091A80180FF02C084E101C08FEFA3
:100CD0008093AD018091A501882339F08091A8010E
:100CE000602F0E9459099B5F0CC08091A801602F62
:100CF0000E945909892F90E00B96B2010E94720957
:100D0000982F9093AC01199BDCCFFBC086E08093B9
:100D10009F011092A00171E27A95F1F7000045E081
:100D2000ECE3F0E024C08091A80180FF02C08AE0DB
:100D300001C08FEF8093AD018091A4018C3018F039
:100D40002AE330E002C02CE130E08091A801642F5A
:100D50000E945909B901690F711DCB01BF010E94A1
:100D600072098093B1018091A4018093AC01199B19
:100D7000DACF71E27A95F1F7C7C080919F01863092
:100D800009F0C4C08091A80180FF02C08AE001C0C0
:100D90008FEF8093AD018091A4018C3018F02AE38D
:100DA00030E002C02CE130E08091A80165E00E94B3
:100DB0005909A901490F511DCA016CE370E00E9455
:100DC00072098093B1018091A4018093AC011B99B9
:100DD0006FC08091A40190E0019668E170E00E94EC
:100DE00072098093A4018091A4018093AC01809149
:100DF000A4018C3018F02AE330E002C02CE130E08E
:100E00008091A80165E00E945909B901690F711D1F
:100E1000CB016CE370E00E9472098093B10171E232
:100E20007A95F1F7000040E0E5E0FCE36F2E712CCD
:100E300029C08091A80180FF02C08AE001C08FEF25
:100E40008093AD018091A4018C3018F02AE330E04A
:100E500002C02CE130E08091A8016E2F0E94590958
:100E6000B901690F711DCB01B3010E947209809312
:100E7000B1018091A4018093AC0171E27A95F1F700
:100E800000004F5F242F30E0112319F48AE090E036
:100E900002C085E090E02817390714F41B9BC9CFE6
:100EA0001B9B10C081E28A95F1F70000D1E008C0D9
:100EB0001B9B0AC0112341F041E24A95F1F7000063
:100EC00010E002C0D1E011E01999AFC1C093AC01AC
:100ED00087E080939F011092A00151E25A95F1F7AB
:100EE00000000DC08091A80180FF02C08FE001C00A
:100EF0008FEF8093AD018091AA018093B101199B7E
:100F0000F1CF61E26A95F1F700008FC180919F01F6
:100F1000873009F090C08091A80180FF02C08FE067
:100F200001C08FEF8093AD01C093AC018091AA0105
:100F30008093B1011B993CC08091AA0190E0019679
:100F40006CE370E00E9472098093AA018091AA016B
:100F50008093B10171E27A95F1F7000040E012C090
:100F60008091A80180FF02C08FE001C08FEF8093C5
:100F7000AD018091AA018093B10181E28A95F1F7D8
:100F800000004F5F242F30E0112319F48AE090E035
:100F900002C085E090E02817390714F41B9BE0CFCE
:100FA0001B9B10C0D1E2DA95F1F70000D1E008C038
:100FB0001B9B0AC0112341F041E24A95F1F7000062
:100FC00010E002C0D1E011E019992FC1C093AD012A
:100FD000C093B101C093AC0188E080939F0110924F
:100FE000A00151E25A95F1F7000022C08091A801BA
:100FF00080FF02C084E101C08FEF8093AD0180913A
:10100000A501882339F08091A801602F0E94590919
:101010009B5F0CC08091A801602F0E945909892F05
:1010200090E00B96B2010E947209982F9093AC0148
:10103000199BDCCF66CF80919F01883009F0A0C05A
:101040008091A80180FF02C084E101C08FEF8093EE
:10105000AD01C093B1018091A501882339F0809141
:10106000A801602F0E9459099B5F0CC08091A801C4
:10107000602F0E945909892F90E00B96B2010E94BF
:101080007209982F9093AC011B994EC09091A501C5
:1010900081E0911180E08093A5018091A5018823D2
:1010A00039F08091A801602F0E9459099B5F0CC004
:1010B0008091A801602F0E945909892F90E00B961A
:1010C000B2010E947209982F9093AC0171E27A9557
:1010D000F1F7000022C08091A80180FF02C084E1E6
:1010E00001C08FEF8093AD018091A501882339F075
:1010F0008091A801602F0E9459099B5F0CC08091CC
:10110000A801602F0E945909892F90E00B96B20127
:101110000E947209982F9093AC011B9BDCCF81E257
:101120008A95F1F70000D1E019997FC089E080939A
:101130009F018091B20090E00E94F3090E944C0A46
:101140008F7790707CE3672E712CB3010E94720937
:101150008093AD010E944C0A8F779070B3010E947A
:1011600072098093B1010E944C0A8F779070B2018E
:101170000E9472098093AC0141E24A95F1F7C4CE16
:1011800080919F01893091F51B9922C00E944C0AE1
:101190008F7790706CE3662E712CB3010E947209F8
:1011A0008093AD010E944C0A8F779070B3010E942A
:1011B00072098093B1010E944C0A8F779070B2013E
:1011C0000E9472098093AC0151E25A95F1F7000038
:1011D00019992BC0C093AD01C093B101C093AC016C
:1011E00010929F0181E08093A0018BCE80919F019E
:1011F0008A30D9F48091A80180FF07C0C093AD0167
:10120000C093B101C093AC0110C08091A80180933C
:10121000AD018091A9018093B1018091A7018093D4
:10122000AC0103C08824992454018091A001882333
:1012300009F456CAC093AD01C093B101C093AC018B
:1012400010929F01DD2321F16091A80180E090E0E0
:101250000E94640A6091A90181E090E00E94640A02
:101260006091A70182E090E00E94640A6091AA0167
:1012700083E090E00E94640A6091A40184E090E021
:101280000E94640A6091A50185E090E00E94640AD2
:101290008091B001882309F022CA10926E0083B7B2
:1012A000816083BF889583B78E7F83BF00936E0074
:1012B00016CA991B79E004C0991F961708F0961B6F
:1012C000881F7A95C9F78095089587FB082E062612
:1012D00087FD819567FD6195ECDF0EF4919507FC24
:1012E0008195089597FB092E07260AD077FD04D033
:1012F0000CD006D000201AF4709561957F4F0895A8
:10130000F6F7909581959F4F0895AA1BBB1B51E15D
:1013100007C0AA1FBB1FA617B70710F0A61BB70B65
:10132000881F991F5A95A9F780959095BC01CD010A
:1013300008958F929F92AF92BF92CF92DF92EF92D9
:10134000FF92CF93DF93EC0188819981AA81BB81C1
:101350000097A105B10521F484E299EDABE5B7E072
:10136000BC01CD012DE133EF41E050E00E94940A31
:1013700049015A0127EA31E440E050E00E94750A31
:101380006B017C01C501B4012CEE34EF4FEF5FEF30
:101390000E94750ADC01CB01C80ED91EEA1EFB1E95
:1013A000F7FE08C08FEF9FEFAFEFBFE7C80ED91E63
:1013B000EA1EFB1EC882D982EA82FB82C6019F77A1
:1013C000DF91CF91FF90EF90DF90CF90BF90AF90E3
:1013D0009F908F9008950E949909089586E991E061
:1013E0000E9499090895A0E0B0E08093960190933F
:1013F0009701A0939801B09399010895A0E0B0E0FF
:10140000E4E0FAE00C94B50AEC0188819981AA81A4
:10141000BB810097A105B10521F484E299EDABE50C
:10142000B7E0BC01CD012DE133EF41E050E00E9477
:10143000940A49015A0127EA31E440E050E00E9451
:10144000750A6B017C01C501B4012CEE34EF4FEF3E
:101450005FEF0E94750ADC01CB01C80ED91EEA1E9F
:10146000FB1EF7FE08C08FEF9FEFAFEFBFE7C80E80
:10147000D91EEA1EFB1EC882D982EA82FB8297012E
:1014800086013F77B801C901CDB7DEB7ECE00C9417
:10149000D10A0E94FE0908958AE991E00E94FE099E
:1014A0000895DC01CB0180939A0190939B01A09356
:1014B0009C01B0939D010895F999FECF92BD81BD25
:1014C000F89A992780B50895262FF999FECF92BDF5
:1014D00081BDF89A019700B4021631F020BD0FB615
:1014E000F894FA9AF99A0FBE0895629FD001739FFB
:1014F000F001829FE00DF11D649FE00DF11D929FB0
:10150000F00D839FF00D749FF00D659FF00D9927EE
:10151000729FB00DE11DF91F639FB00DE11DF91F12
:10152000BD01CF011124089597FB092E05260ED089
:1015300057FD04D04BD00AD0001C38F4509540958C
:10154000309521953F4F4F4F5F4F0895F6F7909597
:101550008095709561957F4F8F4F9F4F08952F9283
:101560003F924F925F926F927F928F929F92AF9233
:10157000BF92CF92DF92EF92FF920F931F93CF9380
:10158000DF93CDB7DEB7CA1BDB0B0FB6F894DEBF17
:101590000FBECDBF09942A88398848885F846E843D
:1015A0007D848C849B84AA84B984C884DF80EE8087
:1015B000FD800C811B81AA81B981CE0FD11D0FB690
:1015C000F894DEBF0FBECDBFED010895A1E21A2E43
:1015D000AA1BBB1BFD010DC0AA1FBB1FEE1FFF1FD7
:1015E000A217B307E407F50720F0A21BB30BE40B27
:1015F000F50B661F771F881F991F1A9469F760956E
:101600007095809590959B01AC01BD01CF01089527
:04161000F894FFCF7C
:1016140008408002042008040201020180402010D6
:10162400088040201001804020100804020130008E
:10163400300030002100210021002700270027006E
:101644002700330033002A002A002A003300330025
:10165400240024002400240024002D002D002D004B
:101664002D002D002D002D002D0031003100310002
:10167400220022002200280028002800280034002C
:1016840034002B002B002B003400340025002500EF
:101694002500250025002E002E002E002E002E00F1
:0E16A4002E002E002E000100000001000000AC
:00000001FF
