:100000000C942C000C9449000C9449000C948D0223
:100010000C94E8010C9482010C9449000C94490062
:100020000C9449000C9449000C945C020C94F90166
:100030000C9449000C9449000C9449000C9449001C
:100040000C9449000C9449000C9449000C9449000C
:100050000C9449000C94490011241FBECFEFD4E04A
:10006000DEBFCDBF11E0A0E0B1E0E8EAF0E102C000
:1000700005900D92A639B107D9F711E0A6E9B1E0D4
:1000800001C01D92A93AB107E1F70E949B020C94AE
:1000900052080C940000CF93DF930F92CDB7DEB7D8
:1000A000E0919901F0919A0120819091A20190959F
:1000B00092239083E091A501F091A6012081909177
:1000C000A20190959223908387FD3CC091B3987CC8
:1000D000936391BB6CE00E940508892F880F880FFD
:1000E000890F8983898186958983E981F0E0EE0F04
:1000F000FF1FE65AFE4FA081B181B0939A01A093F1
:100100009901E981F0E0EE0FFF1FE25EFE4F808172
:1001100091819093A6018093A501E981F0E0E050E0
:10012000FF4F80818093A2018C919091A201892B35
:100130008C93E091A501F091A60180819091A2019C
:10014000892B80830F90DF91CF910895CF93DF9318
:1001500000D0CDB7DEB78A83E0919901F0919A0182
:1001600090818091A201809589238083E091A501EF
:10017000F091A60190818091A201809589238083CE
:100180008A8187FD40C08A8180FD04C081B3887C5C
:10019000876103C081B3887C876281BB8A816CE3FD
:1001A0000E9405089983898186958983E981F0E019
:1001B000EE0FFF1FE65AFE4FA081B181B0939A0166
:1001C000A0939901E981F0E0EE0FFF1FE25EFE4F80
:1001D000808191819093A6018093A501E981F0E04F
:1001E000E050FF4F80818093A2018C919091A201F9
:1001F000892B8C93E091A501F091A60180819091CB
:10020000A201892B80830F900F90DF91CF910895E9
:10021000CF93DF9300D0CDB7DEB78A83E091990109
:10022000F0919A0190818091A20180958923808329
:10023000E091A501F091A60190818091A2018095A5
:10024000892380838A8187FD40C08A8180FD04C024
:1002500081B3887C856303C081B3887C866381BB5E
:100260008A816CE30E940508998389818695898338
:10027000E981F0E0EE0FFF1FE65AFE4FA081B18149
:10028000B0939A01A0939901E981F0E0EE0FFF1F6E
:10029000E25EFE4F808191819093A6018093A5013B
:1002A000E981F0E0E050FF4F80818093A2018C91C2
:1002B0009091A201892B8C93E091A501F091A60168
:1002C00080819091A201892B80830F900F90DF9104
:1002D000CF910895E0919901F0919A0190818091D8
:1002E000A201809589238083E091A501F091A60168
:1002F00090818091A20180958923808381B3876357
:1003000081BB08951F920F920FB60F9211248F9305
:100310009F9380919F018F5F80939F0180919F01A8
:100320008C33C0F010929F018091A0018F5F809369
:10033000A0018091A0018C3368F01092A0018091FF
:100340009E018F5F80939E0180919E01883110F005
:1003500010929E01139B08C080919701813019F083
:100360008091A7018111169A80919D01882301F146
:1003700090919C0180919E019817D1F49091A101D8
:100380008091A0019817A1F480919B01882391F49A
:1003900081E08093A70180939B010C9A8091970143
:1003A000882341F487E0809397011092980102C05E
:1003B00010929B0180919701882319F481E080932A
:1003C00098019F918F910F900FBE0F901F901895DD
:1003D0001F920F920FB60F9211248F938091A70155
:1003E000882309F416988F910F900FBE0F901F90DD
:1003F00018951F920F920FB60F9211242F933F93CF
:100400004F935F936F937F938F939F93AF93BF931C
:10041000EF93FF938091A701882319F0149A139901
:10042000169A80919701882389F1809197018730EE
:1004300069F18091960163E00E94F907992341F4E4
:100440008091A301992787FD90950E944B0011C0D0
:10045000913041F48091A801992787FD90950E94E1
:10046000A60007C08091A401992787FD90950E945E
:100470000801809196018D3718F0109296010BC0FB
:10048000809196018F5F8093960105C00E946A015A
:1004900081E080939801FF91EF91BF91AF919F917F
:1004A0008F917F916F915F914F913F912F910F901D
:1004B0000FBE0F901F9018951F920F920FB60F92BC
:1004C00011242F933F934F935F936F937F938F9359
:1004D0009F93AF93BF93EF93FF938091A7018823DE
:1004E00011F0149809C080919701882329F40E9483
:1004F0006A0181E080939801FF91EF91BF91AF91E4
:100500009F918F917F916F915F914F913F912F912B
:100510000F900FBE0F901F9018951F920F920FB65D
:100520000F9211241092A701149A0C980F900FBEED
:100530000F901F90189580E090E00E943908CCE35E
:100540006C2F0E94F90790939F0181E090E00E9438
:1005500039086C2F0E94F9079093A00182E090E087
:100560000E943908D8E16D2F0E94F90790939E01EF
:1005700083E090E00E9439086C2F0E94F907909365
:10058000A10184E090E00E9439086D2F0E94F907D4
:1005900090939C0185E090E00E94390880939D0132
:1005A00011B814B817B81AB81DB813BA12B815B8DC
:1005B00018B81BB81EB814BA87E380BB81BB239858
:1005C00021982B9A299A149A0C980E9A139A0B98A0
:1005D000EAE5F1E0AEE1B1E000E011E04EE13081AA
:1005E00021813296832F922F9801E80169918E0123
:1005F0006095EC015881562358836C9111965C915B
:1006000011971296862F952FE90138813095EC01CC
:10061000288123232883415011F780915A0190911A
:100620005B0190939A018093990180911E019091B2
:100630001F019093A6018093A501809100018093F2
:10064000A20188E08093B60084E08093B30083E049
:100650008093700095E09093B00091E094BD20E805
:1006600027BD80936E0080916C008A6080936C003F
:10067000ED9A809164008F608093640086E083BF70
:100680007894109297019093980120E010E0442410
:1006900055243201CC24DD247601CFEFD3E0ECE009
:1006A0008E2E912C03E001C020E0809197018823D9
:1006B00029F080919701873009F051C019993AC00B
:1006C00082E08093970110929801C093A401C09397
:1006D000A801C093A30141E24A95F1F7000035E07B
:1006E000ECE3F0E024C080919F0180FF02C080E035
:1006F00001C08FEF8093A40180919E018C3018F08F
:100700004AE350E002C04CE150E080919F01632F2A
:100710000E94F907BA01690F711DCB01BF010E9448
:1007200012088093A80180919E018093A301199BD8
:10073000DACF72C31B990AC081E0809397011092AF
:10074000980181E28A95F1F7000057C080919701E6
:10075000873009F40AC481E08093980106C480912F
:100760009701813009F04DC08091A0018093A801CC
:1007700080919E018093A301139903C0C093A401AB
:1007800004C080919F018093A40141E24A95F1F752
:1007900000001B9911C059ECC516D104E104F10405
:1007A00028F40894C11CD11CE11CF11C1092980182
:1007B000442455243201D9C3139B17C068ECC616D4
:1007C000D104E104F10488F479EC47165104610482
:1007D000710458F40894411C511C611C711C88EC74
:1007E000481651046104710430F01092970181E0C1
:1007F0008093980102C010929801CC24DD247601E8
:10080000B4C380919701823009F0D1C080919F01DB
:1008100080FF02C080E001C08FEF8093A40180912F
:100820009E018C3018F04AE350E002C04CE150E0E9
:1008300080919F0165E00E94F907BA01690F711D5F
:10084000CB016CE370E00E9412088093A8018091B4
:100850009E018093A3011B996FC080919E0190E03F
:10086000019668E170E00E94120880939E018091D9
:100870009E018093A30180919E018C3018F02AE3A1
:1008800030E002C02CE130E080919F0165E00E94E1
:10089000F907A901490F511DCA016CE370E00E94DC
:1008A00012088093A80151E25A95F1F7000040E048
:1008B000E5E07CE3A72EB12C29C080919F0180FF49
:1008C00002C080E001C08FEF8093A40180919E015F
:1008D0008C3018F02AE330E002C02CE130E0809147
:1008E0009F016E2F0E94F907B901690F711DCB019D
:1008F000B5010E9412088093A80180919E01809307
:10090000A30171E27A95F1F700004F5F242F30E0E8
:10091000112319F48AE090E002C085E090E02817E6
:10092000390714F41B9BC9CF1B9B10C081E28A9529
:10093000F1F7000021E008C01B9B0AC0112341F021
:1009400041E24A95F1F7000010E002C021E011E019
:1009500019990BC380919F0180FF02C085E001C0FF
:100960008FEF8093A4018091A0018093A801C09390
:10097000A301009397011092980151E25A95F1F763
:1009800000000DC080919F0180FF02C085E001C082
:100990008FEF8093A4018091A0018093A801199BFF
:1009A000F1CF61E26A95F1F7000021E0DEC28091AB
:1009B0009701833009F0C7C080919F0180FF02C07A
:1009C00085E001C08FEF8093A401C093A3018091C3
:1009D000A0018093A8011B993CC08091A00190E0E8
:1009E00001966CE370E00E9412088093A001809150
:1009F000A0018093A80171E27A95F1F7000040E030
:100A000012C080919F0180FF02C085E001C08FEF7E
:100A10008093A4018091A0018093A80181E28A952E
:100A2000F1F700004F5F242F30E0112319F48AE022
:100A300090E002C085E090E02817390714F41B9B72
:100A4000E0CF1B9B10C041E24A95F1F7000021E086
:100A500008C01B9B0AC0112341F051E25A95F1F7DF
:100A6000000010E002C021E011E019997EC2C0939D
:100A7000A401C093A801C093A30180919D01882384
:100A800079F586E0809397011092980161E26A956A
:100A9000F1F7000022C080919F0180FF02C084E135
:100AA00001C08FEF8093A40180919D01882339F0CC
:100AB00080919F016D2F0E94F9079B5F0CC0809170
:100AC0009F016D2F0E94F907892F90E00B96B401CA
:100AD0000E941208982F9093A301199BDCCF9CC110
:100AE00084E0809397011092980181E28A95F1F752
:100AF000000022C080919F0180FF02C08AE001C0F7
:100B00008FEF8093A40180919D01882339F080911B
:100B10009F016D2F0E94F9079B5F0CC080919F0180
:100B20006D2F0E94F907892F90E00B96B4010E9467
:100B30001208982F9093A301199BDCCF41E24A95AC
:100B4000F1F7000012C280919701843009F0D0C003
:100B500080919F0180FF02C08AE001C08FEF8093E7
:100B6000A40180919C018C3018F04AE350E002C04F
:100B70004CE150E080919F0165E00E94F907BA01C5
:100B8000690F711DCB016CE370E00E941208809325
:100B9000A80180919C018093A3011B996FC0809153
:100BA0009C0190E0019668E170E00E941208809339
:100BB0009C0180919C018093A30180919C018C30C9
:100BC00018F02AE330E002C02CE130E080919F0170
:100BD00065E00E94F907A901490F511DCA016CE3A4
:100BE00070E00E9412088093A80151E25A95F1F733
:100BF000000040E0E5E06CE3A62EB12C29C0809116
:100C00009F0180FF02C08AE001C08FEF8093A401A2
:100C100080919C018C3018F02AE330E002C02CE176
:100C200030E080919F016E2F0E94F907B901690F92
:100C3000711DCB01B5010E9412088093A80180911B
:100C40009C018093A30171E27A95F1F700004F5F58
:100C5000242F30E0112319F48AE090E002C085E0EF
:100C600090E02817390714F41B9BC9CF1B9B10C0B9
:100C700081E28A95F1F7000021E008C01B9B0AC0C1
:100C8000112341F041E24A95F1F7000010E002C063
:100C900021E011E0199969C180919F0180FF02C094
:100CA0008FE001C08FEF8093A4018091A101809318
:100CB000A801C093A30185E0809397011092980149
:100CC00051E25A95F1F700000DC080919F0180FF1D
:100CD00002C08FE001C08FEF8093A4018091A0013A
:100CE0008093A801199BF1CF61E26A95F1F729CFB2
:100CF00080919701853009F093C080919F0180FF1A
:100D000002C08FE001C08FEF8093A401C093A301C4
:100D10008091A1018093A8011B993CC08091A10101
:100D200090E001966CE370E00E9412088093A101AC
:100D30008091A1018093A80171E27A95F1F70000FA
:100D400040E012C080919F0180FF02C08FE001C08F
:100D50008FEF8093A4018091A1018093A80181E28B
:100D60008A95F1F700004F5F242F30E0112319F42A
:100D70008AE090E002C085E090E02817390714F47B
:100D80001B9BE0CF1B9B10C041E24A95F1F700008E
:100D900021E008C01B9B0AC0112341F051E25A9583
:100DA000F1F7000010E002C021E011E01999DDC068
:100DB000C093A401C093A801C093A30186E08093CF
:100DC00097011092980161E26A95F1F7000022C044
:100DD00080919F0180FF02C084E101C08FEF80936A
:100DE000A40180919D01882339F080919F016D2F8E
:100DF0000E94F9079B5F0CC080919F016D2F0E949C
:100E0000F907892F90E00B96B4010E941208982FE1
:100E10009093A301199BDCCF71E27A95F1F791CE03
:100E200080919701863009F085C080919F0180FFF5
:100E300002C084E101C08FEF8093A401C093A80198
:100E400080919D01882339F080919F016D2F0E9430
:100E5000F9079B5F0CC080919F016D2F0E94F907DD
:100E6000892F90E00B96B4010E941208982F90935E
:100E7000A3011B994EC090919D0181E0911180E0EA
:100E800080939D0180919D01882339F080919F017D
:100E90006D2F0E94F9079B5F0CC080919F016D2F01
:100EA0000E94F907892F90E00B96B4010E94120866
:100EB000982F9093A30181E28A95F1F7000022C058
:100EC00080919F0180FF02C084E101C08FEF809379
:100ED000A40180919D01882339F080919F016D2F9D
:100EE0000E94F9079B5F0CC080919F016D2F0E94AB
:100EF000F907892F90E00B96B4010E941208982FF1
:100F00009093A3011B9BDCCF41E24A95F1F70000CF
:100F100021E019992AC0C093A401C093A801C093ED
:100F2000A3011092970181E08093980151E25A95B4
:100F3000F1F707CE809197018730B9F480919F0136
:100F400080FF07C0C093A401C093A801C093A30170
:100F50000CC080919F018093A4018091A001809397
:100F6000A80180919E018093A3018091980188231C
:100F700009F49BCBC093A401C093A801C093A30123
:100F800010929701222321F160919F0180E090E06F
:100F90000E9441086091A00181E090E00E94410818
:100FA00060919E0182E090E00E9441086091A10161
:100FB00083E090E00E94410860919C0184E090E011
:100FC0000E94410860919D0185E090E00E944108E7
:100FD0008091A701882309F067CB10926E0083B738
:100FE000816083BF889583B78E7F83BFD0936E0067
:100FF0005BCB991B79E004C0991F961708F0961BEC
:10100000881F7A95C9F78095089587FB082E0626D4
:1010100087FD819567FD6195ECDF0EF4919507FCE6
:101020008195089597FB092E07260AD077FD04D0F5
:101030000CD006D000201AF4709561957F4F08956A
:10104000F6F7909581959F4F0895AA1BBB1B51E120
:1010500007C0AA1FBB1FA617B70710F0A61BB70B28
:10106000881F991F5A95A9F780959095BC01CD01CD
:101070000895F999FECF92BD81BDF89A992780B560
:101080000895262FF999FECF92BD81BDF89A019758
:1010900000B4021631F020BD0FB6F894FA9AF99A0E
:0810A0000FBE0895F894FFCF84
:1010A8000840800204200804020102018040201048
:1010B8000880402010018040201008040201300000
:1010C80030003000210021002100270027002700E0
:1010D8002700330033002A002A002A003300330097
:1010E800240024002400240024002D002D002D00BD
:1010F8002D002D002D002D002D0031003100310074
:10110800220022002200280028002800280034009D
:1011180034002B002B002B00340034002500250060
:101128002500250025002E002E002E002E002E0062
:061138002E002E002E0027
:00000001FF
