:100000000C942C000C9449000C9449000C9496021A
:100010000C94EC010C9482010C9449000C9449005E
:100020000C9449000C9449000C9465020C94FD0159
:100030000C9449000C9449000C9449000C9449001C
:100040000C9449000C9449000C9449000C9449000C
:100050000C9449000C94490011241FBECFEFD4E04A
:10006000DEBFCDBF11E0A0E0B1E0E0ECF2E102C004
:1000700005900D92A639B107D9F711E0A6E9B1E0D4
:1000800001C01D92AA3AB107E1F70E94A4020C94A4
:100090005E090C940000CF93DF930F92CDB7DEB7CB
:1000A000E0919901F0919A0120819091A30190959E
:1000B00092239083E091A601F091A7012081909175
:1000C000A30190959223908387FD3CC091B3987CC7
:1000D000936391BB6CE00E941109892F880F880FF0
:1000E000890F8983898186958983E981F0E0EE0F04
:1000F000FF1FE65AFE4FA081B181B0939A01A093F1
:100100009901E981F0E0EE0FFF1FE25EFE4F808172
:1001100091819093A7018093A601E981F0E0E050DE
:10012000FF4F80818093A3018C919091A301892B33
:100130008C93E091A601F091A70180819091A30199
:10014000892B80830F90DF91CF910895CF93DF9318
:1001500000D0CDB7DEB78A83E0919901F0919A0182
:1001600090818091A301809589238083E091A601ED
:10017000F091A70190818091A301809589238083CC
:100180008A8187FD40C08A8180FD04C081B3887C5C
:10019000876103C081B3887C876281BB8A816CE3FD
:1001A0000E9411099983898186958983E981F0E00C
:1001B000EE0FFF1FE65AFE4FA081B181B0939A0166
:1001C000A0939901E981F0E0EE0FFF1FE25EFE4F80
:1001D000808191819093A7018093A601E981F0E04D
:1001E000E050FF4F80818093A3018C919091A301F7
:1001F000892B8C93E091A601F091A70180819091C9
:10020000A301892B80830F900F90DF91CF910895E8
:10021000CF93DF9300D0CDB7DEB78A83E091990109
:10022000F0919A0190818091A30180958923808328
:10023000E091A601F091A70190818091A3018095A2
:10024000892380838A8187FD40C08A8180FD04C024
:1002500081B3887C856303C081B3887C866381BB5E
:100260008A816CE30E94110999838981869589832B
:10027000E981F0E0EE0FFF1FE65AFE4FA081B18149
:10028000B0939A01A0939901E981F0E0EE0FFF1F6E
:10029000E25EFE4F808191819093A7018093A60139
:1002A000E981F0E0E050FF4F80818093A3018C91C1
:1002B0009091A301892B8C93E091A601F091A70165
:1002C00080819091A301892B80830F900F90DF9103
:1002D000CF910895E0919901F0919A0190818091D8
:1002E000A301809589238083E091A601F091A70165
:1002F00090818091A30180958923808381B3876356
:1003000081BB08951F920F920FB60F9211248F9305
:100310009F938091A0018F5F8093A0018091A001A5
:100320008C33C0F01092A0018091A1018F5F809367
:10033000A1018091A1018C3368F01092A1018091FC
:100340009F018F5F80939F0180919F01883110F002
:1003500010929F01139B0CC080919701823039F05D
:1003600080919701813019F08091A8018111169A2E
:1003700080919D01882301F190919C0180919F01C2
:100380009817D1F49091A2018091A1019817A1F43E
:1003900080919B01882391F481E08093A801809350
:1003A0009B010C9A80919701882341F489E0809306
:1003B00097011092980102C010929B0180919701C1
:1003C000882319F481E0809398019F918F910F9079
:1003D0000FBE0F901F9018951F920F920FB60F929D
:1003E00011248F938091A801882309F416988F9186
:1003F0000F900FBE0F901F9018951F920F920FB67F
:100400000F9211242F933F934F935F936F937F939A
:100410008F939F93AF93BF93EF93FF938091A80126
:10042000882319F0149A1399169A809197018823BA
:10043000B1F180919701893091F18091960163E04B
:100440000E940509992341F48091A401992787FD11
:1004500090950E944B0016C0913041F48091A90103
:10046000992787FD90950E94A6000CC08091A50158
:10047000992787FD90950E94080180919E018F5FCA
:1004800080939E01809196018D3718F0109296010D
:100490000BC0809196018F5F8093960105C00E94EA
:1004A0006A0181E080939801FF91EF91BF91AF9134
:1004B0009F918F917F916F915F914F913F912F917C
:1004C0000F900FBE0F901F9018951F920F920FB6AE
:1004D0000F9211242F933F934F935F936F937F93CA
:1004E0008F939F93AF93BF93EF93FF938091A80156
:1004F000882311F0149809C080919701882329F46A
:100500000E946A0181E080939801FF91EF91BF9171
:10051000AF919F918F917F916F915F914F913F919B
:100520002F910F900FBE0F901F9018951F920F9252
:100530000FB60F9211241092A801149A0C980F90E4
:100540000FBE0F901F90189580E090E00E94450923
:1005500090E08F779070CCE3D0E0BE010E941E093E
:100560008093A00181E090E00E94450990E08F77A0
:100570009070BE010E941E098093A10182E090E06C
:100580000E94450990E08F77907008E110E0B80173
:100590000E941E0980939F0183E090E00E9445091C
:1005A00090E08F779070BE010E941E098093A20197
:1005B00084E090E00E94450990E08F779070B80148
:1005C0000E941E0980939C0185E090E00E944509ED
:1005D0008F7780939D0111B814B817B81AB81DB859
:1005E00013BA12B815B818B81BB81EB814BA87E3F6
:1005F00080BB81BB239821982B9A299A149A0C9836
:100600000E9A139A0B98EAE5F1E0AEE1B1E000E052
:1006100011E04EE1308121813296832F922F980193
:10062000E80169918E016095EC0158815623588349
:100630006C9111965C9111971296862F952FE90176
:1006400038813095EC01288123232883415011F70C
:1006500080915A0190915B0190939A018093990146
:1006600080911E0190911F019093A7018093A60194
:10067000809100018093A30188E08093B60026E07A
:100680002093B30083E08093700095E09093B000D6
:1006900091E094BD30E837BD80936E0080916C008E
:1006A0008A6080936C00ED9A809164008F608093E3
:1006B000640023BF7894109297019093980120E0F2
:1006C000D0E0882499245401CC24DD247601CFEF96
:1006D00013E06CE0662E712C03E001C020E08091F5
:1006E0009701882329F080919701893009F056C03D
:1006F00019993AC084E08093970110929801C093B1
:10070000A501C093A901C093A40141E24A95F1F764
:10071000000035E0ECE3F0E024C08091A00180FF10
:1007200002C080E001C08FEF8093A50180919F01FE
:100730008C3018F04AE350E002C04CE150E0809168
:10074000A001632F0E940509BA01690F711DCB0139
:10075000BF010E941E098093A90180919F0180938F
:10076000A401199BDACF03C31B9912C081E08093C7
:100770009701C093A401C093A901C093A501109251
:100780009E011092980181E28A95F1F70000C9C09C
:1007900080919701893009F0EBC0F3C480919701F3
:1007A000813009F082C0139904C082E080939701E0
:1007B000E8C41B990EC049ECC416D104E104F1044D
:1007C00028F40894C11CD11CE11CF11C1092980162
:1007D00003C0CC24DD24760180919E014091A501C7
:1007E0008091A001552747FD509590E04817590783
:1007F00024F48091A5018F5F02C08091A0018093B5
:10080000A5014091A9018091A101552747FD50956F
:1008100090E04817590724F48091A9018F5F02C026
:100820008091A1018093A9014091A40180919F0131
:10083000552747FD50956CE00E940509892F90E0EF
:100840004817590724F48091A4018F5F02C080915A
:100850009F018093A40110929E014091A501809177
:10086000A001552747FD509590E04817590709F01A
:1008700085C44091A9018091A101552747FD50955C
:1008800090E04817590709F079C44091A40180917C
:100890009F01552747FD509590E04817590709F0EB
:1008A0006DC482E08093970169C480919701823082
:1008B00009F055C08091A1018093A90180919F0109
:1008C0008093A401139903C0C093A50104C0809133
:1008D000A0018093A50151E25A95F1F700001B9900
:1008E0000EC069ECC616D104E104F10428F40894A2
:1008F000C11CD11CE11CF11C109298013FC413993A
:1009000006C01092970181E0809398010AC078ECAC
:10091000C716D104E104F10440F00093970110924E
:100920009E01CC24DD2476012CC481E9881681E067
:10093000980680E0A80680E0B80678F70894811C45
:10094000911CA11CB11C40E9841641E0940640E0D2
:10095000A40640E0B40608F710929801E2CF809117
:100960009701833009F065C0139906C01092970172
:1009700081E08093980105C41B9911C059ECC516FC
:10098000D104E104F10428F40894C11CD11CE11C39
:10099000F11C1092980181E08093970103C0CC2450
:1009A000DD24760180919E018091A50187FD05C01F
:1009B0008091A5018F5F8093A5018091A90187FD9A
:1009C00005C08091A9018F5F8093A9018091A40146
:1009D00087FD05C08091A4018F5F8093A4011092D0
:1009E0009E018091A5018C3314F0C093A5018091E4
:1009F000A9018C3314F0C093A9018091A4018C301B
:100A000021F08091A401883114F0C093A401809159
:100A1000A50187FFB3C38091A90187FFAFC3809170
:100A2000A40187FFABC31092970181E080939801E6
:100A3000A5C380919701843009F0CDC08091A001B9
:100A400080FF02C080E001C08FEF8093A5018091FC
:100A50009F018C3018F04AE350E002C04CE150E0B6
:100A60008091A00165E00E940509BA01690F711D1E
:100A7000CB016CE370E00E941E098093A901809174
:100A80009F018093A4011B996EC080919F0190E00B
:100A9000019668E170E00E941E0980939F01809199
:100AA0009F018093A40180919F018C3018F02AE36C
:100AB00030E002C02CE130E08091A00165E00E94AE
:100AC0000509A901490F511DCA016CE370E00E949C
:100AD0001E098093A90151E25A95F1F7000020E028
:100AE00035E0ECE3F0E029C08091A00180FF02C076
:100AF00080E001C08FEF8093A50180919F018C3031
:100B000018F04AE350E002C04CE150E08091A001AF
:100B1000632F0E940509BA01690F711DCB01BF0146
:100B20000E941E098093A90180919F018093A401D6
:100B300071E27A95F1F700002F5F422F50E0DD233C
:100B400019F48AE090E002C085E090E04817590768
:100B500014F41B9BC9CF1B9B10C081E28A95F1F74F
:100B6000000021E008C01B9B0AC0DD2341F0D1E258
:100B7000DA95F1F70000D0E002C021E0D1E0199948
:100B800000C38091A00180FF02C085E001C08FEF0B
:100B90008093A501C093A40185E0809397011092F2
:100BA000980141E24A95F1F700000DC08091A00143
:100BB00080FF02C085E001C08FEF8093A501809186
:100BC000A1018093A901199BF1CF51E25A95F1F748
:100BD000000021E0D6C280919701853009F0CCC099
:100BE0008091A00180FF02C085E001C08FEF80935B
:100BF000A501C093A4018091A1018093A9011B9933
:100C00003CC08091A10190E001966CE370E00E94ED
:100C10001E098093A1018091A1018093A90161E245
:100C20006A95F1F7000040E012C08091A00180FFBA
:100C300002C085E001C08FEF8093A5018091A101E2
:100C40008093A90171E27A95F1F700004F5F242F9C
:100C500030E0DD2319F48AE090E002C085E090E006
:100C60002817390714F41B9BE0CF1B9B10C081E2AF
:100C70008A95F1F7000021E008C01B9B0AC0DD2324
:100C800041F0D1E2DA95F1F70000D0E002C021E0B6
:100C9000D1E0199976C2C093A501C093A901C09370
:100CA000A40180919D01882379F588E080939701C4
:100CB0001092980141E24A95F1F7000022C080911C
:100CC000A00180FF02C084E101C08FEF8093A501E5
:100CD00080919D01882339F08091A001612F0E94AD
:100CE00005099B5F0CC08091A001612F0E9405093E
:100CF000892F90E00B96B3010E941E09982F9093C4
:100D0000A401199BDCCF90C186E0809397011092DB
:100D1000980161E26A95F1F7000035E0ECE3F0E05C
:100D200024C08091A00180FF02C08AE001C08FEF43
:100D30008093A50180919C018C3018F04AE350E02B
:100D400002C04CE150E08091A001632F0E94050990
:100D5000BA01690F711DCB01BF010E941E0980936A
:100D6000A90180919C018093A401199BDACF71E2C3
:100D70007A95F1F7000005C280919701863009F05D
:100D8000BFC08091A00180FF02C08AE001C08FEF48
:100D90008093A50180919C018C3018F04AE350E0CB
:100DA00002C04CE150E08091A00165E00E9405097D
:100DB000BA01690F711DCB016CE370E00E941E093E
:100DC0008093A90180919C018093A4011B996EC01E
:100DD00080919C0190E0019668E170E00E941E09FC
:100DE00080939C0180919C018093A40180919C013F
:100DF0008C3018F02AE330E002C02CE130E0809122
:100E0000A00165E00E940509A901490F511DCA0111
:100E10006CE370E00E941E098093A90151E25A958B
:100E2000F1F7000020E035E0ECE3F0E029C080912C
:100E3000A00180FF02C08AE001C08FEF8093A5016E
:100E400080919C018C3018F04AE350E002C04CE1E4
:100E500050E08091A001632F0E940509BA01690F3B
:100E6000711DCB01BF010E941E098093A9018091D1
:100E70009C018093A40171E27A95F1F700002F5F45
:100E8000422F50E0DD2319F48AE090E002C085E0B3
:100E900090E04817590714F41B9BC9CF1B9B10C047
:100EA00081E28A95F1F7000021E008C01B9B0AC08F
:100EB000DD2341F0D1E2DA95F1F70000D0E002C085
:100EC00021E0D1E019995DC1C093A40187E080932E
:100ED00097011092980141E24A95F1F700000DC088
:100EE0008091A00180FF02C08FE001C08FEF80934E
:100EF000A5018091A2018093A901199BF1CF94C013
:100F000080919701873009F093C08091A00180FF04
:100F100002C08FE001C08FEF8093A501C093A401B0
:100F20008091A2018093A9011B993CC08091A201EC
:100F300090E001966CE370E00E941E098093A2018C
:100F40008091A2018093A90161E26A95F1F7000006
:100F500040E012C08091A00180FF02C08FE001C07C
:100F60008FEF8093A5018091A2018093A90171E286
:100F70007A95F1F700004F5F242F30E0DD2319F45C
:100F80008AE090E002C085E090E02817390714F469
:100F90001B9BE0CF1B9B10C081E28A95F1F70000FC
:100FA00021E008C01B9B0AC0DD2341F0D1E2DA95A5
:100FB000F1F70000D0E002C021E0D1E01999E1C0D2
:100FC000C093A501C093A901C093A40188E08093B8
:100FD00097011092980141E24A95F1F7000022C072
:100FE0008091A00180FF02C084E101C08FEF809357
:100FF000A50180919D01882339F08091A001612F86
:101000000E9405099B5F0CC08091A001612F0E9486
:101010000509892F90E00B96B3010E941E09982FB5
:101020009093A401199BDCCF51E25A95F1F7A2CE1F
:1010300080919701883009F085C08091A00180FFE0
:1010400002C084E101C08FEF8093A501C093A90184
:1010500080919D01882339F08091A001612F0E9429
:1010600005099B5F0CC08091A001612F0E940509BA
:10107000892F90E00B96B3010E941E09982F909340
:10108000A4011B994EC090919D0181E0911180E0D7
:1010900080939D0180919D01882339F08091A0016A
:1010A000612F0E9405099B5F0CC08091A001612FF8
:1010B0000E940509892F90E00B96B3010E941E093A
:1010C000982F9093A40161E26A95F1F7000022C085
:1010D0008091A00180FF02C084E101C08FEF809366
:1010E000A50180919D01882339F08091A001612F95
:1010F0000E9405099B5F0CC08091A001612F0E9496
:101100000509892F90E00B96B3010E941E09982FC4
:101110009093A4011B9BDCCF71E27A95F1F700005C
:1011200021E019992EC0C093A501C093A901C093D5
:10113000A4011092970181E08093980181E28A9541
:10114000F1F718CE809197018930D9F48091A001F0
:1011500080FF07C0C093A501C093A901C093A4015B
:1011600010C08091A0018093A5018091A10180937E
:10117000A90180919F018093A40103C08824992430
:10118000540180919801882309F4A9CAC093A5014C
:10119000C093A901C093A40110929701222321F1C9
:1011A0006091A00180E090E00E944D096091A10152
:1011B00081E090E00E944D0960919F0182E090E003
:1011C0000E944D096091A20183E090E00E944D09C8
:1011D00060919C0184E090E00E944D0960919D0126
:1011E00085E090E00E944D098091A801882309F0D4
:1011F00075CA10926E0083B7816083BF889583B7EC
:101200008E7F83BF10936E0069CA991B79E004C07A
:10121000991F961708F0961B881F7A95C9F7809535
:10122000089587FB082E062687FD819567FD619549
:10123000ECDF0EF4919507FC8195089597FB092E3C
:1012400007260AD077FD04D00CD006D000201AF46F
:10125000709561957F4F0895F6F7909581959F4F12
:101260000895AA1BBB1B51E107C0AA1FBB1FA617ED
:10127000B70710F0A61BB70B881F991F5A95A9F73F
:1012800080959095BC01CD010895F999FECF92BD4E
:1012900081BDF89A992780B50895262FF999FECF38
:1012A00092BD81BDF89A019700B4021631F020BDBD
:1012B0000FB6F894FA9AF99A0FBE0895F894FFCFF2
:1012C000084080020420080402010201804020102E
:1012D00008804020100180402010080402013000E6
:1012E00030003000210021002100270027002700C6
:1012F0002700330033002A002A002A00330033007D
:10130000240024002400240024002D002D002D00A2
:101310002D002D002D002D002D0031003100310059
:101320002200220022002800280028002800340083
:1013300034002B002B002B00340034002500250046
:101340002500250025002E002E002E002E002E0048
:061350002E002E002E000D
:00000001FF
